{
  "contractName": "WahlCreator",
  "abi": [
    {
      "inputs": [],
      "payable": false,
      "stateMutability": "nonpayable",
      "type": "constructor"
    },
    {
      "constant": true,
      "inputs": [],
      "name": "veranstalter",
      "outputs": [
        {
          "internalType": "address",
          "name": "",
          "type": "address"
        }
      ],
      "payable": false,
      "stateMutability": "view",
      "type": "function"
    },
    {
      "constant": true,
      "inputs": [
        {
          "internalType": "uint256",
          "name": "",
          "type": "uint256"
        }
      ],
      "name": "wahlen",
      "outputs": [
        {
          "internalType": "address",
          "name": "",
          "type": "address"
        }
      ],
      "payable": false,
      "stateMutability": "view",
      "type": "function"
    },
    {
      "constant": false,
      "inputs": [
        {
          "internalType": "uint256",
          "name": "_startJahr",
          "type": "uint256"
        },
        {
          "internalType": "uint256",
          "name": "_startMonat",
          "type": "uint256"
        },
        {
          "internalType": "uint256",
          "name": "_startTag",
          "type": "uint256"
        },
        {
          "internalType": "uint256",
          "name": "_endJahr",
          "type": "uint256"
        },
        {
          "internalType": "uint256",
          "name": "_endMonat",
          "type": "uint256"
        },
        {
          "internalType": "uint256",
          "name": "_endTag",
          "type": "uint256"
        },
        {
          "internalType": "uint256",
          "name": "value",
          "type": "uint256"
        }
      ],
      "name": "erstelleWahl",
      "outputs": [],
      "payable": false,
      "stateMutability": "nonpayable",
      "type": "function"
    },
    {
      "constant": true,
      "inputs": [],
      "name": "getErstellteWahlen",
      "outputs": [
        {
          "internalType": "address[]",
          "name": "",
          "type": "address[]"
        }
      ],
      "payable": false,
      "stateMutability": "view",
      "type": "function"
    }
  ],
  "bytecode": "0x608060405234801561001057600080fd5b5033600160006101000a81548173ffffffffffffffffffffffffffffffffffffffff021916908373ffffffffffffffffffffffffffffffffffffffff1602179055506115e7806100616000396000f3fe608060405234801561001057600080fd5b506004361061004c5760003560e01c8063040a92c914610051578063498feb37146100bb5780636c91b15514610129578063f45b8e2e14610173575b600080fd5b6100b9600480360360e081101561006757600080fd5b81019080803590602001909291908035906020019092919080359060200190929190803590602001909291908035906020019092919080359060200190929190803590602001909291905050506101d2565b005b6100e7600480360360208110156100d157600080fd5b81019080803590602001909291905050506103a6565b604051808273ffffffffffffffffffffffffffffffffffffffff1673ffffffffffffffffffffffffffffffffffffffff16815260200191505060405180910390f35b6101316103e2565b604051808273ffffffffffffffffffffffffffffffffffffffff1673ffffffffffffffffffffffffffffffffffffffff16815260200191505060405180910390f35b61017b610408565b6040518080602001828103825283818151815260200191508051906020019060200280838360005b838110156101be5780820151818401526020810190506101a3565b505050509050019250505060405180910390f35b600160009054906101000a900473ffffffffffffffffffffffffffffffffffffffff1673ffffffffffffffffffffffffffffffffffffffff163373ffffffffffffffffffffffffffffffffffffffff1614610278576040517f08c379a000000000000000000000000000000000000000000000000000000000815260040180806020018281038252602e815260200180611585602e913960400191505060405180910390fd5b6000610285888888610496565b90506000610294868686610496565b90506000600160009054906101000a900473ffffffffffffffffffffffffffffffffffffffff168383866040516102ca90610560565b808573ffffffffffffffffffffffffffffffffffffffff1673ffffffffffffffffffffffffffffffffffffffff168152602001848152602001838152602001828152602001945050505050604051809103906000f080158015610331573d6000803e3d6000fd5b50905060008190806001815401808255809150509060018203906000526020600020016000909192909190916101000a81548173ffffffffffffffffffffffffffffffffffffffff021916908373ffffffffffffffffffffffffffffffffffffffff1602179055505050505050505050505050565b600081815481106103b357fe5b906000526020600020016000915054906101000a900473ffffffffffffffffffffffffffffffffffffffff1681565b600160009054906101000a900473ffffffffffffffffffffffffffffffffffffffff1681565b6060600080548060200260200160405190810160405280929190818152602001828054801561048c57602002820191906000526020600020905b8160009054906101000a900473ffffffffffffffffffffffffffffffffffffffff1673ffffffffffffffffffffffffffffffffffffffff1681526020019060010190808311610442575b5050505050905090565b6000620151806104a78585856104b1565b0290509392505050565b60006107b28410156104c257600080fd5b600084905060008490506000849050600062253d8c60046064600c600e8703816104e857fe5b05611324880101816104f657fe5b056003028161050157fe5b05600c80600c600e88038161051257fe5b0502600287030361016f028161052457fe5b056004600c600e88038161053457fe5b056112c08901016105b5028161054657fe5b05617d4b8603010103039050809450505050509392505050565b6110178061056e8339019056fe608060405234801561001057600080fd5b506040516110173803806110178339818101604052608081101561003357600080fd5b810190808051906020019092919080519060200190929190805190602001909291908051906020019092919050505083600260006101000a81548173ffffffffffffffffffffffffffffffffffffffff021916908373ffffffffffffffffffffffffffffffffffffffff16021790555082600381905550816004819055508060058190555050505050610f4c806100cb6000396000f3fe608060405234801561001057600080fd5b50600436106100a95760003560e01c80636cc94543116100715780636cc94543146102275780637484c60d146102865780639e4fdd611461033b578063c210bb9514610359578063c81c59461461039f578063e9e4d83e14610457576100a9565b8063294e18a7146100ae578063328d8881146100e65780633fa4f245146101a1578063423ad7e7146101bf5780636c91b155146101dd575b600080fd5b6100e4600480360360408110156100c457600080fd5b8101908080359060200190929190803590602001909291905050506104af565b005b61019f600480360360208110156100fc57600080fd5b810190808035906020019064010000000081111561011957600080fd5b82018360208201111561012b57600080fd5b8035906020019184600183028401116401000000008311171561014d57600080fd5b91908080601f016020809104026020016040519081016040528093929190818152602001838380828437600081840152601f19601f8201169050808301925050505050505091929192905050506107be565b005b6101a9610998565b6040518082815260200191505060405180910390f35b6101c761099e565b6040518082815260200191505060405180910390f35b6101e56109a4565b604051808273ffffffffffffffffffffffffffffffffffffffff1673ffffffffffffffffffffffffffffffffffffffff16815260200191505060405180910390f35b61022f6109ca565b6040518080602001828103825283818151815260200191508051906020019060200280838360005b83811015610272578082015181840152602081019050610257565b505050509050019250505060405180910390f35b6102b26004803603602081101561029c57600080fd5b8101908080359060200190929190505050610b81565b6040518084815260200180602001838152602001828103825284818151815260200191508051906020019080838360005b838110156102fe5780820151818401526020810190506102e3565b50505050905090810190601f16801561032b5780820380516001836020036101000a031916815260200191505b5094505050505060405180910390f35b610343610c50565b6040518082815260200191505060405180910390f35b6103856004803603602081101561036f57600080fd5b8101908080359060200190929190505050610c56565b604051808215151515815260200191505060405180910390f35b610455600480360360208110156103b557600080fd5b81019080803590602001906401000000008111156103d257600080fd5b8201836020820111156103e457600080fd5b8035906020019184602083028401116401000000008311171561040657600080fd5b919080806020026020016040519081016040528093929190818152602001838360200280828437600081840152601f19601f820116905080830192505050505050509192919290505050610c82565b005b6104836004803603602081101561046d57600080fd5b8101908080359060200190929190505050610d89565b604051808415151515815260200183151515158152602001828152602001935050505060405180910390f35b60035442101580156104c357506004544211155b610535576040517f08c379a000000000000000000000000000000000000000000000000000000000815260040180806020018281038252601d8152602001807f446965205761686c20697374206e69636874206765c3b666666e65742e00000081525060200191505060405180910390fd5b60008083815260200190815260200160002060000160019054906101000a900460ff166105ad576040517f08c379a000000000000000000000000000000000000000000000000000000000815260040180806020018281038252602f815260200180610ee9602f913960400191505060405180910390fd5b60008083815260200190815260200160002060000160009054906101000a900460ff1615610626576040517f08c379a0000000000000000000000000000000000000000000000000000000008152600401808060200182810382526023815260200180610e946023913960400191505060405180910390fd5b6000821161069c576040517f08c379a000000000000000000000000000000000000000000000000000000000815260040180806020018281038252601a8152602001807f556e67c3bc6c74696765204d617472696b656c6e756d6d65722e00000000000081525060200191505060405180910390fd5b6001805490508110610716576040517f08c379a000000000000000000000000000000000000000000000000000000000815260040180806020018281038252601c8152602001807f556e67c3bc6c7469676572204b616e6469646174656e696e6465782e0000000081525060200191505060405180910390fd5b600160008084815260200190815260200160002060000160006101000a81548160ff02191690831515021790555080600080848152602001908152602001600020600101819055506001818154811061076b57fe5b90600052602060002090600302016002016000815480929190600101919050555080827fbf04ae1648b4d3bcc603feeb5bd3a3101663276a4bb48906010bc7c3d7c286c260405160405180910390a35050565b600260009054906101000a900473ffffffffffffffffffffffffffffffffffffffff1673ffffffffffffffffffffffffffffffffffffffff163373ffffffffffffffffffffffffffffffffffffffff1614610864576040517f08c379a0000000000000000000000000000000000000000000000000000000008152600401808060200182810382526032815260200180610eb76032913960400191505060405180910390fd5b60006001805490509050610876610dcd565b604051806060016040528083815260200184815260200160008152509050600181908060018154018082558091505090600182039060005260206000209060030201600090919290919091506000820151816000015560208201518160010190805190602001906108e8929190610dee565b5060408201518160020155505050817f71f4fd35810642b5f629855b6ff0c417f01b3107d0e6a600ecdb00848d592c55846040518080602001828103825283818151815260200191508051906020019080838360005b8381101561095957808201518184015260208101905061093e565b50505050905090810190601f1680156109865780820380516001836020036101000a031916815260200191505b509250505060405180910390a2505050565b60055481565b60035481565b600260009054906101000a900473ffffffffffffffffffffffffffffffffffffffff1681565b6060600260009054906101000a900473ffffffffffffffffffffffffffffffffffffffff1673ffffffffffffffffffffffffffffffffffffffff163373ffffffffffffffffffffffffffffffffffffffff1614610a72576040517f08c379a0000000000000000000000000000000000000000000000000000000008152600401808060200182810382526032815260200180610eb76032913960400191505060405180910390fd5b6004544211610ae9576040517f08c379a00000000000000000000000000000000000000000000000000000000081526004018080602001828103825260208152602001807f446965205761686c20697374206e6f6368206e69636874206265656e6465742e81525060200191505060405180910390fd5b6060600180549050604051908082528060200260200182016040528015610b1f5781602001602082028038833980820191505090505b50905060008090505b600180549050811015610b795760018181548110610b4257fe5b906000526020600020906003020160020154828281518110610b6057fe5b6020026020010181815250508080600101915050610b28565b508091505090565b60018181548110610b8e57fe5b9060005260206000209060030201600091509050806000015490806001018054600181600116156101000203166002900480601f016020809104026020016040519081016040528092919081815260200182805460018160011615610100020316600290048015610c405780601f10610c1557610100808354040283529160200191610c40565b820191906000526020600020905b815481529060010190602001808311610c2357829003601f168201915b5050505050908060020154905083565b60045481565b600080600083815260200190815260200160002060000160019054906101000a900460ff169050919050565b600260009054906101000a900473ffffffffffffffffffffffffffffffffffffffff1673ffffffffffffffffffffffffffffffffffffffff163373ffffffffffffffffffffffffffffffffffffffff1614610d28576040517f08c379a0000000000000000000000000000000000000000000000000000000008152600401808060200182810382526032815260200180610eb76032913960400191505060405180910390fd5b60008090505b8151811015610d85576001600080848481518110610d4857fe5b6020026020010151815260200190815260200160002060000160016101000a81548160ff0219169083151502179055508080600101915050610d2e565b5050565b60006020528060005260406000206000915090508060000160009054906101000a900460ff16908060000160019054906101000a900460ff16908060010154905083565b60405180606001604052806000815260200160608152602001600081525090565b828054600181600116156101000203166002900490600052602060002090601f016020900481019282601f10610e2f57805160ff1916838001178555610e5d565b82800160010185558215610e5d579182015b82811115610e5c578251825591602001919060010190610e41565b5b509050610e6a9190610e6e565b5090565b610e9091905b80821115610e8c576000816000905550600101610e74565b5090565b9056fe4465722057c3a4686c657220686174206265726569747320616267657374696d6d742e4e75722064657220566572616e7374616c746572206461726620646965736520416b74696f6e206175736675656872656e2e4465722057c3a4686c657220697374206e69636874207a7572205465696c6e61686d6520626572656368746967742ea265627a7a723158204c1564c9b336317a10e5f460d6675fa8705ffba6e698dc55cc53376ebc79449864736f6c634300051000324e75722064657220566572616e7374616c746572206b616e6e2065696e65205761686c2065727374656c6c656e2ea265627a7a723158202bc19c79222941897a77beb09e17b3cf50d27c34840d22fe6f5f7bae8339e27e64736f6c63430005100032",
  "source": "pragma solidity ^0.5.16;\nimport \"./Wahl.sol\";\nimport \"./DateTimeLibrary.sol\";\n\ncontract WahlCreator {\n\n    using DateTimeLibrary for uint;\n\n    address[] public wahlen;\n    address public veranstalter;\n\n    constructor() public {\n        veranstalter = msg.sender;\n    }\n\n    function erstelleWahl(uint _startJahr, uint _startMonat, uint _startTag, uint _endJahr, uint _endMonat, uint _endTag, uint value) public {\n        require(msg.sender == veranstalter, \"Nur der Veranstalter kann eine Wahl erstellen.\");\n        uint startZeit = DateTimeLibrary.timestampFromDate(_startJahr, _startMonat, _startTag);\n        uint endZeit = DateTimeLibrary.timestampFromDate(_endJahr, _endMonat, _endTag);\n     \n        address neueWahl = address(new Wahl(veranstalter, startZeit, endZeit, value));\n        wahlen.push(neueWahl);\n    }\n\n    function getErstellteWahlen() public view returns(address[] memory) {\n        return wahlen;\n    }\n}\n",
  "sourcePath": "/projects/BC_Groupe07/contracts/WahlCreator.sol",
  "compiler": {
    "name": "solc",
    "version": "0.5.16+commit.9c3226ce.Emscripten.clang"
  },
  "schemaVersion": "3.4.1",
  "updatedAt": "2023-07-04T19:03:15.307Z",
  "networkType": "ethereum",
  "devdoc": {
    "methods": {}
  },
  "userdoc": {
    "methods": {}
  }
}